:04000000BDEF03F05D
:10060000004B657920646574656374696F6E20665C
:100610006565646261636B207573696E672055411F
:1006200052540A0D00507265737320616E79206414
:1006300069676974616C206B65793A0A0D000A5329
:100640005749544348203120444554454354454478
:10065000000A5357495443482032204445544543E7
:10066000544544000A5357495443482033204445D5
:10067000544543544544000A535749544348203491
:0B06800020444554454354454400000D
:10068C00CDEC03F0250E026E060E036EA8EC03F003
:10069C00010E8AEC03F0066E0E0E0618D8A407D0D5
:1006AC003E0E026E060E036EA8EC03F020D00D0E6B
:1006BC000618D8A407D0510E026E060E036EA8ECD5
:1006CC0003F015D00B0E0618D8A407D0640E026EDA
:1006DC00060E036EA8EC03F00AD0070E0618D8A479
:1006EC0006D0770E026E060E036EA8EC03F0000E19
:1006FC00056EFA0E046E0406D8A005060428FBE16C
:10070C000528D8B4C5D7F7D7016E0104D8A415D0E5
:10071C0082500F0B0F0AD8B408D00750D8B405D0AC
:10072C00000E076E82500F0B120082500F0B0F0A37
:10073C00D8A406D0010E076E03D00150D8B4F2D75E
:10074C00FF0E12000AD002C0F6FF03C0F7FF08002C
:10075C00F550E1EC03F0024A032A02C0F6FF03C095
:10076C00F7FF0800F5500009D8B41200ECD7D60EEC
:10077C00F66E070EF76E000EF86E0900F5CF07F057
:10078C00000EF86E060EF76E000146EF03F0D8EC83
:10079C0003F0E7EC03F0010E026E060E036EA8ECFC
:1007AC0003F01200948E949CAC84AB8EAB88810EBB
:1007BC00AF6E9D8A1200016E9EA8FED701C0ADFFE0
:0B07CC00120094500F09946E120001FF
:00000001FF
